:0C012C000A08C0F9A4B0999282F88090F3
:0B010100AF822FF8E6F5A07FE87E0338
:10010C00E4FDFCC3ED9FEC9E5015E4FBFA0BBB0029
:0F011C00010AEB647B4A70F50DBD00010C80E415
:01012B0022B1
:10008F0090000020903230942F30942CD3E582943E
:10009F0009E583648094804005E4F583F582740854
:1000AF00120101A3D3E5829409E583648094804013
:1000BF00D8E4F583F58280D12094C83090C5309074
:1000CF00C2E58224FEE58334FFC36480948050032D
:1000DF009000027406120101E582158270021583E9
:1000EF00C3E5829402E5836480948050D190000B25
:0200FF0080CCB3
:03000000020003F8
:0C000300787FE4F6D8FD75811102004AF8
:10000F0002008FE493A3F8E493A34003F68001F278
:10001F0008DFF48029E493A3F85407240CC8C333F2
:10002F00C4540F4420C8834004F456800146F6DFC1
:10003F00E4800B010204081020408090012CE47E24
:10004F00019360BCA3FF543F30E509541FFEE493B6
:10005F00A360010ECF54C025E060A840B8E493A37D
:10006F00FAE493A3F8E493A3C8C582C8CAC583CAA8
:10007F00F0A3C8C582C8CAC583CADFE9DEE780BE60
:0101380000C6
:00000001FF
