:0408E000020800000A
:0C08D400D2A8D2AAD28AD288D2AF80FE6D
:0300030002088C64
:10088C00C0E0C0D00509E50970020508D39409E55C
:10089C00086480948040067508007509008509A0DD
:0508AC00D0D0D0E032C5
:030013000208B12F
:1008B100C0E0C0D0E509150970021508C3E5086458
:1008C10080948050067508007509098509A0D0D06B
:0308D100D0E03242
:03000000020800F3
:0C080000787FE4F6D8FD758109020847F6
:10080C000208D4E493A3F8E493A34003F68001F226
:10081C0008DFF48029E493A3F85407240CC8C333ED
:10082C00C4540F4420C8834004F456800146F6DFBC
:10083C00E4800B01020408102040809008E0E47E64
:10084C00019360BCA3FF543F30E509541FFEE493B1
:10085C00A360010ECF54C025E060A840B8E493A378
:10086C00FAE493A3F8E493A3C8C582C8CAC583CAA3
:10087C00F0A3C8C582C8CAC583CADFE9DEE780BE5B
:0108E4000013
:00000001FF
