:0C0117000A08C0F9A4B0999282F8809008
:1000F700E4FDFCC3ED9FEC9E5015E4FBFA0BBB003F
:0F010700010AEB647D4A70F50DBD00010C80E428
:0101160022C6
:10008F0090000074082582F8E6F5A020B02B7F14AD
:10009F007E001200F720B021A3D3E5829409E583F7
:1000AF00648094804005E4F583F582AF8274082F55
:1000BF00F8E6F5A020B0D480FB20B1CF7F147E00EE
:1000CF001200F720B1C5E582158270021583C3E5D2
:1000DF0083648094805003900009AF8274082FF8D6
:0800EF00E6F5A020B1A580FB9D
:03000000020003F8
:0C000300787FE4F6D8FD75811102004AF8
:10000F0002008FE493A3F8E493A34003F68001F278
:10001F0008DFF48029E493A3F85407240CC8C333F2
:10002F00C4540F4420C8834004F456800146F6DFC1
:10003F00E4800B0102040810204080900117E47E39
:10004F00019360BCA3FF543F30E509541FFEE493B6
:10005F00A360010ECF54C025E060A840B8E493A37D
:10006F00FAE493A3F8E493A3C8C582C8CAC583CAA8
:10007F00F0A3C8C582C8CAC583CADFE9DEE780BE60
:0101230000DB
:00000001FF
