:0C0112000A08C0F9A4B0999282F880900D
:0D00E500AF8274082FF8E6F5A07FF47E01CD
:1000F200E4FDFCC3ED9FEC9E5015E4FBFA0BBB0044
:0F010200010AEB647D4A70F50DBD00010C80E42D
:0101110022CB
:10008F0090000074082582F8E6F5A020B0227F14B6
:10009F007E001200F220B018A3D3E5829409E58305
:1000AF00648094804005E4F583F5821200E580DBDF
:1000BF0020B1D87F147E001200F220B1CEE5821558
:1000CF008270021583C3E58364809480500390008F
:0600DF00091200E580B5E6
:03000000020003F8
:0C000300787FE4F6D8FD75811102004AF8
:10000F0002008FE493A3F8E493A34003F68001F278
:10001F0008DFF48029E493A3F85407240CC8C333F2
:10002F00C4540F4420C8834004F456800146F6DFC1
:10003F00E4800B0102040810204080900112E47E3E
:10004F00019360BCA3FF543F30E509541FFEE493B6
:10005F00A360010ECF54C025E060A840B8E493A37D
:10006F00FAE493A3F8E493A3C8C582C8CAC583CAA8
:10007F00F0A3C8C582C8CAC583CADFE9DEE780BE60
:01011E0000E0
:00000001FF
