:0300DE0001080016
:10008F0020A01530A1120508E508640A7002F508D2
:10009F0085089020A0EA80FB30A0E520A1E215089A
:0F00AF00E508700375080985089020A1D380FB30
:1000BE00E4FDFCC3ED9FEC9E5015E4FBFA0BBB0078
:0F00CE00010AEB647B4A70F50DBD00010C80E464
:0100DD002200
:03000000020003F8
:0C000300787FE4F6D8FD75810802004A01
:10000F0002008FE493A3F8E493A34003F68001F278
:10001F0008DFF48029E493A3F85407240CC8C333F2
:10002F00C4540F4420C8834004F456800146F6DFC1
:10003F00E4800B01020408102040809000DEE47E73
:10004F00019360BCA3FF543F30E509541FFEE493B6
:10005F00A360010ECF54C025E060A840B8E493A37D
:10006F00FAE493A3F8E493A3C8C582C8CAC583CAA8
:10007F00F0A3C8C582C8CAC583CADFE9DEE780BE60
:0100E100001E
:00000001FF
