:0400060002080000EC
:0F010A00D2A8D2AAD288D28A8509A0D2AF80FE0D
:030003000200A256
:1000A200C0E0C0D00509E50970020508D39409E54E
:1000B200086480948040067508007509008509A0CF
:0500C200D0D0D0E032B7
:030013000200C721
:1000C700C0E0C0D0E509150970021508C3E508644A
:1000D70080948050067508007509098509A0D0D05D
:0300E700D0E03234
:1000EA00E4FDFCC3ED9FEC9E5015E4FBFA0BBB004C
:0F00FA00010AEB647B4A70F50DBD00010C80E438
:0101090022D3
:03000000020016E5
:0C001600787FE4F6D8FD75810902005DDA
:1000220002010AE493A3F8E493A34003F68001F2E9
:1000320008DFF48029E493A3F85407240CC8C333DF
:10004200C4540F4420C8834004F456800146F6DFAE
:10005200E4800B0102040810204080900006E47E38
:10006200019360BCA3FF543F30E509541FFEE493A3
:10007200A360010ECF54C025E060A840B8E493A36A
:10008200FAE493A3F8E493A3C8C582C8CAC583CA95
:10009200F0A3C8C582C8CAC583CADFE9DEE780BE4D
:01000A0000F5
:00000001FF
