:0D0960000B08C0F9A4B0999282F8809000B5
:0D08F400AF8274082FF8E6F5A07F327E0079
:10090100E4FDFCC3ED9FEC9E5015E4FBFA0BBB002C
:0F091100010AEB647D4A70F50DBD00010C80E416
:0109200022B4
:100921008F828E83E4F517F5181208F40518E5187F
:1009310070020517C3940AE5176480948040EA2287
:100941008F828E837517007518091208F4E5181542
:0F0951001870021517C3E5176480948050EC22CC
:10088C0075A0FFE4F513F514F51575160920B02BBA
:10089C00AF14AE131209210514E51470020513D31D
:1008AC009409E513648094804005E4F513F5142055
:1008BC00B0DBAF14AE1312092180F420B1CFAF1608
:1008CC00AE15120941E516151670021515C3E5157E
:1008DC0064809480500675150075160920B1DCAF44
:0808EC0016AE1512094180F45B
:03000000020800F3
:0C080000787FE4F6D8FD758118020847E7
:10080C0002088CE493A3F8E493A34003F68001F26E
:10081C0008DFF48029E493A3F85407240CC8C333ED
:10082C00C4540F4420C8834004F456800146F6DFBC
:10083C00E4800B0102040810204080900960E47EE3
:10084C00019360BCA3FF543F30E509541FFEE493B1
:10085C00A360010ECF54C025E060A840B8E493A378
:10086C00FAE493A3F8E493A3C8C582C8CAC583CAA3
:10087C00F0A3C8C582C8CAC583CADFE9DEE780BE5B
:01096D000089
:00000001FF
