:0F00C9000108000A09C0F9A4B0999282F880904A
:1000AF0020A0FD0508E508640A7002F5087409250B
:0A00BF0008F8E6F5B020A0E880FB89
:10008F00E4FDFCC3ED9FEC9E5015E4FBFA0BBB00A7
:0F009F00010AEB647B4A70F50DBD00010C80E493
:0100AE00222F
:03000000020003F8
:0C000300787FE4F6D8FD75811202004AF7
:10000F000200AFE493A3F8E493A34003F68001F258
:10001F0008DFF48029E493A3F85407240CC8C333F2
:10002F00C4540F4420C8834004F456800146F6DFC1
:10003F00E4800B01020408102040809000C9E47E88
:10004F00019360BCA3FF543F30E509541FFEE493B6
:10005F00A360010ECF54C025E060A840B8E493A37D
:10006F00FAE493A3F8E493A3C8C582C8CAC583CAA8
:10007F00F0A3C8C582C8CAC583CADFE9DEE780BE60
:0100D8000027
:00000001FF
